:1000000012C019C018C08FC080C015C014C013C062
:1000100012C011C010C00FC00EC00DC00CC00BC06C
:100020000AC009C008C011241FBECFE5D4E0DEBF5E
:10003000CDBF84D0E6C0E4CF5F9BFECF8CB10895E6
:1000400020E030E0000000000000000000000000A0
:1000500000000000000000002F5F3F4F8217930751
:1000600088F70895CF93DF93EC0107C08CB95E9BAE
:10007000FECF219688EE93E0E3DF88818823B1F7F5
:10008000DF91CF9108958CB95E9BFECF88EE93E00F
:10009000D7DF0895EF92FF920F931F93182F64E616
:1000A0007DD0482F282F30E08CE99FEF289F7001EA
:1000B000299FF00C389FF00C1124C701810F911D6E
:1000C0006AE070E077D0062F842F805DDCDF802F20
:1000D000805DD9DF105D1E0D86EF9FEF089F002D1C
:1000E0001124802F810FCFDF1F910F91FF90EF9090
:1000F00008951BB888E18AB986E880BD10BC8DE4FC
:1001000089B984E690E09CDF08951F920F920FB6A4
:100110000F9211248F9389E088BB8F910F900FBEAF
:100120000F901F9018951F920F920FB60F921124E7
:1001300018BA0F900FBE0F901F901895DADF88EA5B
:1001400091E60197F1F781EA8FBD89E08EBD1DBC74
:100150001CBC80EC89BF8CE485BD789414BC8FE016
:1001600087BB2FEF30E05F9BFECF8CB1823681F0F2
:10017000833618F48136B9F705C0853631F08636F6
:1001800091F709C03BBD2ABDEECF1BBC1ABCEBCF1B
:1001900039BD28BDE8CF19BC18BCE5CF991B79E063
:1001A00004C0991F961708F0961B881F7A95C9F707
:1001B0008095089597FB092E07260AD077FD04D075
:1001C0000CD006D000201AF4709561957F4F0895E9
:1001D000F6F7909581959F4F0895AA1BBB1B51E19F
:1001E00007C0AA1FBB1FA617B70710F0A61BB70BA7
:1001F000881F991F5A95A9F780959095BC01CD014C
:060200000895F894FFCF01
:00000001FF
